:020000040800F2
:10000000C81400209D010008990C0008450B000849
:10001000DD0B0008A10500082726000800000000ED
:10002000000000000000000000000000C1140008F3
:10003000B907000800000000771300083D1600080B
:10004000B7010008B7010008B7010008B7010008B0
:10005000B7010008B7010008B7010008B7010008A0
:10006000B7010008B7010008CD080008B701000873
:10007000B7010008B7010008B7010008B701000880
:10008000B7010008B7010008B7010008B701000870
:10009000B7010008B7010008B70100080909000806
:1000A000B7010008B7010008B7010008B701000850
:1000B000B7010008B7010008B7010008B701000840
:1000C000B7010008B7010008B7010008B701000830
:1000D000B70100082D220008B5220008B70100086A
:1000E0008D080008B7010008B7010008B701000833
:1000F000B7010008B7010008B7010008B701000800
:10010000B7010008B7010008DD180008B7010008B2
:10011000B7010008B7010008A1190008B7010008DD
:10012000B7010008B7010008B7010008B7010008CF
:10013000B7010008B7010008B7010008B7010008BF
:10014000B7010008B7010008B7010008B7010008AF
:10015000B7010008B7010008B7010008B70100089F
:10016000B7010008B7010008B7010008B70100088F
:10017000B7010008B7010008B7010008B70100087F
:10018000B7010008B7010008DFF80CD000F06AF8EA
:1001900000480047F12C0008C8140020064880479A
:1001A00006480047FEE7FEE7FEE7FEE7FEE7FEE75C
:1001B000FEE7FEE7FEE7FEE74116000889010008BA
:1001C000D2B201E000F8012B491EFBD27047002299
:1001D000F6E710B513460A4604461946FFF7F0FF46
:1001E000204610BD10B5002200E0521C835C8C5CE0
:1001F000A34201D1002BF8D1D8B2E1B2401A10BD10
:100200002DE9F05F0546002092469B46884606464B
:10021000814640241BE0284641464746224600F0DE
:1002200042F853465A46C01A914110D31146184617
:10023000224600F029F82D1A67EB01084F462246A6
:100240000120002100F020F817EB00094E41201E8C
:10025000A4F10104DFDC484631462A464346BDE8A6
:10026000F09F0000064C074D06E0E06840F00103F7
:1002700094E8070098471034AC42F6D3FFF788FFA4
:100280006C5000088C500008202A04DB203A00FA49
:1002900002F1002070479140C2F1200320FA03F3DD
:1002A000194390407047202A04DB203A21FA02F0DB
:1002B0000021704721FA02F3D040C2F120029140A0
:1002C00008431946704770B58D1810F8014B14F0AB
:1002D000030201D110F8012B231106D110F8013BC4
:1002E00003E010F8016B01F8016B521EF9D1ABB1BC
:1002F00010F8012B04F00C048A1A0C2C03D0A2EB8A
:1003000084129B1C08E010F8014BA2EB0422F8E7D2
:1003100012F8014B01F8014B5B1EF9D5A942D4D369
:10032000002070BD21B1826842F00102826003E0CA
:10033000826822F001028260704700000021084AB2
:100340001168084A1140D0E900231A4383681A4310
:10035000C3681A431143044AC2F8041370470000EB
:1003600004230140E030FCFF0020014021B18268FD
:1003700042F48072826003E0826822F480728260BC
:10038000704721B1826842F40072826003E08268A3
:1003900022F400728260704730B5024600200023CC
:1003A0005068104C20400D790C6844EA0524204325
:1003B000506090680C4C2040D1E903542C438D6868
:1003C0002C434D7944EA450420439060D06A20F4E0
:1003D00070000C7D641EE4B2234340EA0350D062F7
:1003E00030BD0000FFFEFFFCFDF7FFC0F0B5044686
:1003F0000D4600200021092D11DDE068A5F10A0657
:1004000006EB4607072606FA07F18843A5F10A0618
:1004100006EB460603FA06F10843E0600CE02069AB
:1004200005EB4507072606FA07F1884305EB450665
:1004300003FA06F108432061072A0FDA606B561EA3
:1004400006EB86071F2606FA07F18843561E06EBC1
:10045000860605FA06F10843606322E00D2A0FDAEA
:10046000206BD61F06EB86071F2606FA07F1884386
:10047000D61F06EB860605FA06F10843206310E056
:10048000E06AA2F10D0606EB86071F2606FA07F1C1
:100490008843A2F10D0606EB860605FA06F108432D
:1004A000E062F0BD816841F08041816070470000EA
:1004B00000B59BB00121080200F07EFF0121334806
:1004C00000F05AFF03208DF8500001201390002007
:1004D0008DF8530013A92E4800F0A6FA00200F90C3
:1004E0004FF4803010900020119012900FA8FFF769
:1004F00025FF002015901990189001208DF85900C3
:100500008DF858008DF8680015A92248FFF744FFC0
:10051000642004900020009003900B901E480290ED
:1005200000200D904FF400500890C01006908010ED
:10053000099018484C30019000200E904FF4006054
:100540000790002005904FF440300A906946134808
:1005500000F006F90121114800F0F6F801210D48DC
:10056000FFF7E0FE01210B48FFF70BFF01210948CF
:10057000FFF7FCFE0623012200210648FFF736FFA5
:100580000448FFF78FFF1BB000BD000001004000D2
:1005900000000240002001402809002010640240B1
:1005A00000BFFEE710B50121084600F0E5FE082176
:1005B000024800F0AFFA00F011F810BD0000024050
:1005C0001CB500208DF80400082000906946024800
:1005D00000F02AFA1CBD0000000002401CB50821F2
:1005E000094800F097FA01208DF804008DF8060004
:1005F0000820009000208DF807008DF8050069465E
:10060000014800F011FA1CBD0000024070B5002541
:1006100020E06006040E00BF0821104800F06FFAC9
:100620000028F9D100BF08210C4800F068FA002822
:10063000F9D00821094800F062FA10B11E2002F03A
:10064000FFFA0821054800F05AFA08B144F0010405
:10065000681CC5B2082DDCDB204670BD00000240DE
:100660002DE9FC4106460F4600240821324800F0DF
:100670004FFA142002F09CFA08212F4800F04AFAA1
:100680001E2002F0DDFAFFF79BFF0EE0601CC4B2F3
:10069000052002F0D5FA0A2C07DD4C22274928A0B4
:1006A00002F0CAF80120BDE8FC810821224800F0D0
:1006B00026FA0028EAD100240DE0601CC4B20A200A
:1006C00002F0BEFA0A2C06DD57221C491CA002F0DB
:1006D000B3F80120E7E70821174800F010FA0028D6
:1006E000EBD0002505E0FFF791FF0DF80500681C31
:1006F000C5B2052DF7DBFFF771FF9DF800009DF8EF
:10070000011008449DF8021008449DF803100844A5
:100710009DF80410884207D19DF8000030709DF8C4
:10072000020038700020BEE76922044904A002F0EC
:1007300083F80120B7E70000000002405C50000889
:1007400025732025640A000021B1026842F00102ED
:10075000026003E0026822F00102026070470000BC
:1007600010B500220268134B1A40CC680B68234373
:100770004C6923438C692343CC6923430C6A23438C
:100780004C6A23438C6A23434C6B23438C6B234377
:100790001A430260426922F00702D1E90B34234375
:1007A0001A4342610B6943604B6883608B68C36086
:1007B00010BD00003F801CF07047000000B585B000
:1007C0000121880300F0F8FD0121142000F0D4FD80
:1007D00000208DF804008DF80600702000900120A4
:1007E0008DF807006946274800F01EF900208DF8B3
:1007F00004008DF806004FF40050009001208DF8A1
:1008000007006946204800F00FF90421084600F06F
:1008100059FE0521042000F055FE0621042000F0B9
:1008200051FE0D21022000F04DFE42F270000390B7
:1008300001208DF8120000208DF810000C208DF89A
:10084000110003A800F0A6F80A208DF80800012086
:100850008DF80B0002208DF8090001208DF80A00A8
:1008600002A800F01BFA17208DF8080002A800F07B
:1008700015FA28208DF8080002A800F00FFA05B03C
:1008800000BD0000001002400008024010B54FF407
:10089000005000F073F890B14FF4005000F068F889
:1008A0000121074801F043FB4FF40051054800F0D7
:1008B00026F920B904480078401C0349087010BD8F
:1008C000000C0040000802403508002010B5102040
:1008D00000F054F880B1102000F04AF801210748D8
:1008E00001F025FB1021064800F009F920B9054860
:1008F0000078401C0349087010BD0000000C004047
:10090000001002403208002010B5202000F036F818
:1009100080B1202000F02CF80121114801F007FBE4
:100920002021104800F0EBF820B90F480078401C57
:100930000D490870402000F021F880B1402000F0FF
:1009400017F80121064801F0F2FA4021054800F0AD
:10095000D6F820B905480078401C0449087010BD3D
:10096000000C004000100240330800203408002032
:100970000149086070470000143C01400146002016
:10098000034A12680A400AB1012000E000207047C3
:10099000143C0140002123498279002A3AD00A46BA
:1009A000126803689A430B461A600A1D12680368AE
:1009B0009A430B1D1A60027911440A6803681A43AE
:1009C0000A60184A0832126803689A43154B0833C4
:1009D0001A601A1D126803689A43124B0C331A608E
:1009E0004279102A0ED11A1F126803681A430D4B60
:1009F00008331A601A1D126803681A43094B0C3336
:100A00001A600DE00749427911440A6803681A43E5
:100A10000A6005E0027911440A6803689A430A6093
:100A200070470000003C0140F0B50A460021002359
:100A3000002400BF3DE0012505FA01F3156805EA31
:100A400003049C4234D105684F000326BE40B543E1
:100A5000056015794E00B540066835430560157987
:100A6000012D02D01579022D16D185684F0003267D
:100A7000BE40B543856055794E00B5408668354324
:100A80008560456801268E40B54345604568967986
:100A90008E40B6B235434560C5684F000326BE4060
:100AA000B543C560D5794E00B540C6683543C560CD
:100AB000491C1029BFD3F0BDF0B5002300244D0719
:100AC000ED0E02FA05F3CE1000F1200555F8265080
:100AD0004E07F70E0F26BE40B543CF1000F120069B
:100AE00046F82750CE1000F1200555F8265045EA6B
:100AF0000304CE1000F1200545F82640F0BD024663
:100B0000002013690B400BB1012000E0002070476A
:100B1000418370470183704742694A404261704790
:100B20000022002105E0064830F811000244481C6C
:100B3000C1B26429F7DB6420B2FBF0F080B27047E9
:100B40002809002000BFFEE710B580210A48FFF702
:100B5000E1FF40210848FFF7DDFF00F037F8802172
:100B60000548FFF7D5FF00F031F840210248FFF7B4
:100B7000CFFF00F02BF810BD0004024010B580211B
:100B80000648FFF7C5FF40210448FFF7C3FF00F008
:100B90001DF880210148FFF7BDFF10BD0004024091
:100BA00010B580210848FFF7B5FF00F00FF840218D
:100BB0000548FFF7AFFF00F009F840210248FFF7B2
:100BC000A7FF00F003F810BD000402400A2000BF98
:100BD0000100A0F10102D0B2FAD1704700BFFEE7D8
:100BE00000B587B00121102000F0E6FB0121084686
:100BF00000F0C2FB072209212548FFF75DFF07220D
:100C00000A212348FFF758FF02208DF81800002022
:100C10008DF81A004FF4C060059001208DF81B007C
:100C200002208DF8190005A91948FFF7FDFE4FF4C1
:100C3000E13001900020ADF810000C20ADF80E005E
:100C40000020ADF80C00ADF80A00ADF8080001A9CD
:100C5000104801F079FC40210E4801F0F5FB01211C
:100C60000C4801F009FC012240F22551094801F02D
:100C700046FC25208DF8000001208DF803008DF83A
:100C800001008DF80200684600F008F807B000BDCA
:100C900000000240001001407047000070B50021C4
:100CA00000230F22C4781CB3174C246804F4E064BA
:100CB000C4F5E064C4F30721C1F10404E3B20A41BE
:100CC00044789C40E1B28478144021430C07210E03
:100CD0000E4C05786155047804F01F050124AC40E2
:100CE00005786D11AD0005F1E025C5F8004109E07A
:100CF000047804F01F050124AC40054D06787611F8
:100D000045F8264070BD00000CED00E000E400E076
:100D100080E100E002490143024A1160704700008F
:100D20000000FA050CED00E070B500240CE0002591
:100D300006E00020074901EBC5010855681CC5B253
:100D4000802DF6DB601CC4B2082CF0DB00F038F913
:100D500070BD0000B80A00202DE9F04306460F469A
:100D600090460025444643E03A1BD1B27219D0B2F6
:100D7000012200F045F83A1BD1B2721BD0B2012219
:100D800000F03EF83A19D1B2721BD0B2012200F045
:100D900037F83A19D1B27219D0B2012200F030F806
:100DA0007A19D1B23219D0B2012200F029F87A1B97
:100DB000D1B23219D0B2012200F022F87A1BD1B29E
:100DC000321BD0B2012200F01BF87A19D1B2321BCB
:100DD000D0B2012200F014F86D1C05FB05F004FBF5
:100DE000040008FB1809B9F1000F01DD641E6D1E37
:100DF0006000604308FB08F18842B5DABDE8F08383
:100E0000F0B514460B46CF1701EB5777C7F3C7026F
:100E1000CF1701EB5777FF10A1EBC707FEB20123F5
:100E2000B340DDB24CB1134B03EBC0039B5C2B43CF
:100E3000104F07EBC007BB541AE00E4B03EBC00387
:100E40009B5CDB430B4F07EBC007BB54094B03EB29
:100E5000C0039B5C2B43074F07EBC007BB54054BFC
:100E600003EBC0039B5CDB43024F07EBC007BB54A3
:100E7000F0BD0000B80A00201CB50121022000F0DE
:100E80007BFAC020009001208DF804008DF8060048
:100E900003208DF8050001208DF8070069464048C1
:100EA000FFF7C2FD10213F48FFF732FEC82001F0D6
:100EB0007FFE10213B48FFF72DFE0021AE2000F001
:100EC0003EFA0021084600F03AFA0021102000F016
:100ED00036FA0021402000F032FA0021812000F093
:100EE0002EFA0021CF2000F02AFA0021A12000F0E4
:100EF00026FA0021C82000F022FA0021A62000F0E6
:100F00001EFA0021A82000F01AFA00213F2000F06C
:100F100016FA0021D32000F012FA0021084600F052
:100F20000EFA0021D52000F00AFA0021802000F0FE
:100F300006FA0021D92000F002FA0021F12000F089
:100F4000FEF90021DA2000F0FAF90021122000F069
:100F5000F6F90021DB2000F0F2F90021402000F03A
:100F6000EEF90021202000F0EAF90021022000F033
:100F7000E6F900218D2000F0E2F90021142000F0B4
:100F8000DEF90021A42000F0DAF90021A62000F00B
:100F9000D6F9FFF7C9FE0021AF2000F0D0F91CBD43
:100FA00000040240000C024010B50246012000E09F
:100FB00050430B00A1F10104E1B2F9D110BD0000D2
:100FC00070B500242BE004F1B001C8B2002100F09C
:100FD000B6F90021084600F0B2F90021102000F017
:100FE000AEF9FFF7B1FD782000F08CFAFFF7D8FDDD
:100FF000402000F087FAFFF7D3FD002509E00949FA
:1010000001EBC501085D00F07DFAFFF7C9FD681C22
:10101000C5B2802DF3DBFFF7B1FD601CC4B2082C14
:10102000D1DB70BDB80A00202DE9FE4F0746884687
:1010300092461C460197CDF80080082C02D14FF053
:1010400006091FE02046E31704EB5373DB1021462B
:101050004FEAE47C04EB5C7C4FEAEC0CA4EBCC0C98
:10106000BCF1000F02D04FF0010C01E04FF0000C7A
:101070006344224604EBD27C4FEA6C0C03FB0CF376
:1010800003F0FF09AAF12000C6B200255EE0082C9B
:1010900007D106EB46002F4901EB400010F805B0E0
:1010A0001DE00C2C07D106EB46002B4901EB80001C
:1010B00010F805B013E0102C05D1284800EB0610FD
:1010C00010F805B00BE0182C07D106EBC600244938
:1010D00001EB800010F805B001E0BDE8FE8F0020B4
:1010E00002901CE00BF0010028B1414638460C9AF2
:1010F000FFF786FE09E00C9808B9012000E0002007
:10110000024641463846FFF77BFE4FEA6B0B08F17B
:10111000010000F0FF080298401CC0B20290029843
:101120000828DFDB781CC7B2082C0BD004EBD47185
:101130004A100199791A8A4204D1019F0098083017
:10114000C0B20090DDF80080681CC5B24D459EDB42
:1011500000BFC2E70C31000834330008A83700088C
:10116000983D00082DE9FC4F0746884616461C4668
:10117000BB46CDF804802046E21704EB5272D21031
:101180002146E31704EB5373DB10A4EBC3030BB14D
:10119000012300E000231A44624392B2009200252A
:1011A00055E0102C05D12C4800EB461010F805A096
:1011B0001BE0182C07D106EBC600284901EBC00044
:1011C00010F805A011E0202C05D1254800EBC61031
:1011D00010F805A009E0402C05D1224800EB46207C
:1011E00010F805A001E0BDE8FC8F4FF000091CE0FD
:1011F0000AF0010028B1414638460B9AFFF700FE7D
:1012000009E00B9808B9012000E0002002464146A1
:101210003846FFF7F5FD4FEA6A0A08F1010000F0D1
:10122000FF0809F1010000F0FF09B9F1080FDFDB49
:10123000781CC7B2A7EB0B00A04204D15F4601980F
:101240000830C0B20190DDF80480681C85B20098B7
:101250008542A6DB00BFC6E7F44A0008944D0008AB
:10126000DC4D00085C4E00082DE9FF4F82B00646B9
:1012700091461F46DDE90F4A4FF0000B082C01D1C3
:101280004FF0020B002530E0781B401EC1B20A204F
:10129000FFF78AFEB9FBF0F00A21B0FBF1F201FB87
:1012A0001208B8F1000F0ED104EBD4710BEB610101
:1012B00001FB0561C8B223463022CDE900A40399A1
:1012C000FFF7B2FE0FE004EBD4710BEB610101FB01
:1012D0000561C8B208F13001CAB22346CDE900A4C5
:1012E0000399FFF7A1FE681CC5B2BD42CCDB06B076
:1012F000BDE8F08F2DE9F84106460F4614461D461D
:10130000DDF81C8013E0CDF8008022782B463946AA
:101310003046FFF789FE082D02D1B01DC6B205E0A8
:10132000284605EBD07106EB6101CEB2641C207833
:10133000202802DB20787E28E5DDBDE8F88170B545
:1013400005460C46FFF700FC782000F0DBF8FFF7BD
:1013500027FC1CB1402000F0D5F802E0002000F08E
:10136000D1F8FFF71DFC284600F0CCF8FFF718FC79
:10137000FFF704FC70BD704729B1064A12680243AA
:10138000044B1A6004E0034A12688243014B1A605E
:10139000704700003038024029B1064A1268024303
:1013A000044B1A6004E0034A12688243014B1A603E
:1013B000704700004038024029B1064A12680243D3
:1013C000044B1A6004E0034A12688243014B1A601E
:1013D0007047000044380240F0B50021002200248C
:1013E000022500260223324F3F6807F00C0121B18D
:1013F000042905D0082937D105E02E4F076036E0D3
:101400002D4F076033E02A4F3F1F3F68C7F38056D8
:10141000274F3F1F3F6807F03F036EB1264FB7FBD2
:10142000F3F7DFF88CC0ACF1040CDCF800C0CCF3AF
:10143000881C07FB0CF40CE01E4FB7FBF3F7DFF83A
:1014400070C0ACF1040CDCF800C0CCF3881C07FBC6
:101450000CF4174F3F1F3F68C7F301477F1C7D0007
:10146000B4FBF5F7076002E0124F076000BF00BF52
:101470000F4F3F6807F0F0010909104F7A5C0768C9
:10148000D74047600A4F3F6807F4E051890A0B4F85
:101490007A5C4768D7408760054F3F6807F4604132
:1014A000490B064F7A5C4768D740C760F0BD000023
:1014B000083802400024F40040787D014B080020E9
:1014C0007047000030B500228B071C0F0F2303FA72
:1014D00004F20B4B8C1053F824309343084C8D10BE
:1014E00044F8253023468C1053F824308C07240F01
:1014F00000FA04F42343024C8D1044F8253030BD2B
:101500000838014070B5044600251BE004F0800057
:1015100020B180210D48FFF7FDFA03E080210B4840
:10152000FFF7F6FAFFF752FB40210848FFF7F2FAFF
:10153000FFF74CFB40210548FFF7EAFA6006040E6E
:10154000681CC5B2082DE1DB70BD0000000402403C
:101550000CB50020019000903448006840F48030C1
:101560003249086000BF3148006800F40030009044
:101570000198401C0190009818B90198B0F5A04F4F
:10158000F1D12A48006800F4003010B10120009029
:1015900001E0002000900098012846D12348403007
:1015A000006840F0805021494031086020480068C0
:1015B00040F440401E4908601C48083000681B4940
:1015C000083108600846006840F40040086008469A
:1015D000006840F4A05008601648091F0860081F02
:1015E000006840F08070091F086000BF0F48006865
:1015F00000F000700028F9D040F205700E49086034
:101600000A480830006820F00300084908310860E3
:101610000846006840F00200086000BF0348083038
:10162000006800F00C000828F8D10CBD003802401A
:101630000070004008544007003C02407047000022
:1016400010B51548006840F470001349086013484D
:10165000006840F001001149086000200F4908317E
:1016600008600E4800680E4908400C4908600D48A3
:10167000091D0860081F006820F48020091F086009
:10168000002006490C310860FFF762FF4FF0006050
:1016900001498039086010BD88ED00E00038024043
:1016A000FFFFF6FE1030002400B58BB001210220B0
:1016B000FFF762FE01214020FFF76EFE02208DF849
:1016C00028008003099000208DF82A008DF82B0057
:1016D00002208DF8290009A91D48FFF7A5F9092264
:1016E0000F211B48FFF7E8F940F2E73007904FF46D
:1016F0002F70ADF818000020ADF81A00ADF82000EA
:1017000006A9144800F050FD4FF48070ADF81400A5
:101710006020ADF804000120ADF806000020039021
:10172000ADF8100001A90B4800F07EFC0821094823
:1017300000F0CCFC0121074800F0EAFB012105483C
:1017400000F001FC0121034800F0F1FB0BB000BDEB
:10175000000402400018004000B58BB001211020A9
:10176000FFF70AFE01210846FFF726FE02208DF84A
:1017700028000002099000208DF82A0001208DF831
:101780002B0002208DF8290009A92248FFF74CF907
:10179000012209211F48FFF78FF940F2F31007904B
:1017A0000020ADF81800ADF81A00ADF8200006A929
:1017B000194800F0F9FC4FF48070ADF81400602077
:1017C000ADF804000120ADF80600002003900220CF
:1017D000ADF81000C001ADF816000220ADF81200FF
:1017E0000120ADF8080001A90B4800F0D5FB082145
:1017F000094800F00FFC0121074800F089FB012196
:10180000054800F0A0FB0121034800F090FB0BB05D
:1018100000BD0000001002400000014000B58BB088
:1018200001210220FFF7A8FD01210846FFF7B4FDC2
:1018300002208DF828004002099000208DF82A002F
:101840008DF82B0002208DF8290009A92248FFF706
:10185000EBF801220A212048FFF72EF940F2F3109D
:1018600007900020ADF81800ADF81A00ADF8200080
:1018700006A94FF0804000F097FC4FF48070ADF85F
:1018800014006020ADF804000120ADF806004FF40C
:10189000967003900220ADF81000C001ADF816005C
:1018A0000220ADF812000120ADF8080001A9800760
:1018B00000F01AFC0821C80600F066FC0121880728
:1018C00000F026FB0121880700F03DFB012188077D
:1018D00000F02DFB0BB000BD0004024008B5012153
:1018E000224800F03FFB00283ED001211F4800F0B5
:1018F0001BFB1F480078012832D110231D4A1946CE
:1019000000900020FFF7F6FCFFF75AFB1AA11948D8
:10191000FEF768FC20B94FF480711948FFF7FCF816
:1019200018A11448FEF75EFC18B9C821C80600F0DB
:1019300038FC16A10F48FEF755FC18B9C821C80697
:1019400000F02FFC13A10B48FEF74CFC20B94FF41C
:101950007A71124800F023FCC8210648FEF737FCD4
:101960000021024800F0E3FA08BD0000000C00402E
:1019700049080020001000206F70656E6C656400DF
:1019800000100240626565700000000062656570CD
:101990006300000066656E670000000000180040EC
:1019A0001CB50121FE4800F0DDFA00286FD00121AE
:1019B000FB4800F0B9FAFB480078012868D1FA48E2
:1019C000007801282FD1F9480078A0B94FF4807130
:1019D000F748FFF7A1F80120F449087001F0F0F989
:1019E000052218214020FFF7B7F9FFF7E9FA002098
:1019F000EC4908701CBDED480078012813D10102A4
:101A0000EB48FFF789F80020E849087001F0D8F9A1
:101A1000052218214020FFF79FF9FFF7D1FA002097
:101A2000E0490870E6E7E0480078022849D1E1483B
:101A30000078A0B94FF49671DF4800F0AEFB0120AA
:101A4000DC49087001F0BCF9052228214020FFF78D
:101A500083F9FFF7B5FA0020D2490870CAE7D548E4
:101A60000078012815D13221D34800F096FB0220DE
:101A7000D049087001F0A4F9052228214020FFF781
:101A80006BF9FFF79DFA0020C6490870B2E7EDE058
:101A900062E0C8480078022813D10021C64800F04F
:101AA0007CFB0020C349087001F08AF90522282137
:101AB0004020FFF751F9FFF783FA0020B949087079
:101AC00098E7B9480078032846D1BC48007898B90F
:101AD0006421080700F065FB0120B849087001F097
:101AE0006FF9052238214020FFF736F9FFF768FA31
:101AF0000020AC4908707DE7B0480078012813D178
:101B00000021800700F04DFB0220AC49087001F075
:101B100057F9052238214020FFF71EF9FFF750FA48
:101B20000020A049087065E7A4480078022813D176
:101B3000C821400700F035FB0020A049087001F0E3
:101B40003FF9052238214020FFF706F9FFF738FA60
:101B50000020944908704DE799480078012844D145
:101B60009148007818B190480078032811D10120DD
:101B70008D490870FFF7D8F801F022F905221821E5
:101B80004020FFF7E9F8FFF71BFA00208C490870A6
:101B900030E785480078012811D102208249087079
:101BA000FFF7C2F801F00CF9052228214020FFF7C9
:101BB000D3F8FFF705FA0020814908701AE77A4840
:101BC0000078022811D1032077490870FFF7ACF89C
:101BD00001F0F6F8052238214020FFF7BDF8FFF7A5
:101BE000EFF900207649087004E77648007801286C
:101BF00017D175480078022805D101F0A7F8002018
:101C000070490870F6E670480078032805D101F0A5
:101C1000D7F800206B490870ECE60020694908708D
:101C200024E06A480078012817D167480078012825
:101C300005D101F0C5F8002064490870DAE6624871
:101C40000078022805D101F0C1F900205F49087031
:101C5000D0E600205D49087008E00020584908706F
:101C6000504908705749087058490870564800781C
:101C700002285AD1FEF754FF044601201021042304
:101C80002246CDE9001020214820FFF7EDFAFEF7AB
:101C900047FFB0F57A7F0FDC012010230B223021A3
:101CA00000905F20FFF75EFA0021434800F075FACC
:101CB00000204049087030E0FEF732FFB0F57A7F2F
:101CC0001CDDFEF72DFFB0F5FA6F17DA01201023A7
:101CD0000C22202100902820FFF744FA0120102335
:101CE0000C22302100905F20FFF73CFA322132486D
:101CF00000F053FA02202F4908700EE00120102353
:101D00000B22202100902820FFF72CFAC8212A4816
:101D100000F043FA012027490870FFF751F94FF40A
:101D200096714FF0804000F03CFAFEF7F9FEB0F5F6
:101D30007A7F07DC0021204800F02FFA00201D499F
:101D4000087018E0FEF7ECFEB0F57A7F0CDDFEF7C8
:101D5000E7FEB0F5FA6F07DA3221174800F01DFAF6
:101D600002201449087006E0C821134800F015FA53
:101D700001201049087014480078032854D11449F0
:101D80001448FEF76DFC012010210223CDE900105C
:101D90000F4802783220FFF767FA012010211BE07C
:101DA00000100040330800203A08002036080020C8
:101DB00000100240370800200000014039080020D0
:101DC00032080020340800203108002035080020A7
:101DD0003B0800203C0800200223CDE900101A48EF
:101DE000027820213220FFF73FFA184800781E2899
:101DF00005DB4FF47A71164800F0D1F903E00021B9
:101E0000134800F0CCF9FFF7DBF80F4800783C28C6
:101E100004DB6421080700F0C4F905E04FF4967173
:101E20004FF0804000F0BDF90A48007848B9012021
:101E3000102309A2194600900020FFF75BFAFFF774
:101E4000BFF800BFD6E500003C0800203B0800209A
:101E500000180040490800207265616479000000A4
:101E60007FB505460C4601210820FFF795FA01953C
:101E7000ADF800400020ADF80200ADF8080069465A
:101E80000B4800F091F901221146094800F07BF857
:101E900032208DF80C0001208DF80F008DF80D0018
:101EA00000208DF80E0003A8FEF7F8FE7FBD0000AD
:101EB000000C00407FB505460C4601211020FFF7BD
:101EC0006BFA0195ADF800400020ADF80200ADF8C6
:101ED000080069460D4800F067F9012211460B48D9
:101EE00000F051F836208DF80C0001208DF80F001D
:101EF00003208DF80D0000208DF80E0003A8FEF7DA
:101F0000CDFE0121014800F012F87FBD0010004015
:101F100021B1028842F08002028004E002884FF67C
:101F20007F731A4002807047CA430282704721B112
:101F3000028842F00102028004E002884FF6FE733C
:101F40001A400280704731B1B0F8442042F4004298
:101F5000A0F8442005E0B0F84420C2F30E02A0F837
:101F60004420704730B50246002000230024158A23
:101F700005EA0103958905EA010413B10CB10120BA
:101F800000E0002030BD1AB183890B43838102E059
:101F900083898B438381704770B50024002200231E
:101FA000058C4FF6FE7635400584028C8388048BC1
:101FB0004FF68F752C40B51E2C400D882C43751E96
:101FC0002A408D892A434D882A43104DA84202D0C9
:101FD0000F4DA84213D14FF6F7752A40CD892A43F9
:101FE0004FF6FB752A408D882A434FF6FF652B403C
:101FF0004FF6FF552B400D8A2B434D8A2B43838090
:1020000004838D684563028470BD000000000140B8
:10201000000401400A460021018B4FF6F773194076
:10202000114301837047000070B500240022002393
:10203000058C4FF6EF7635400584028C8388048B3F
:1020400048F6FF752C404FF6FF452C400D884FF6A3
:10205000FF7606EA05252C434FF6DF752A408D8969
:1020600006EA05152A434D8806EA05152A43154D4B
:10207000A84202D0144DA8421DD14FF67F752A40C8
:10208000CD894FF6FF7606EA05152A434FF6BF7550
:102090002A408D8806EA05152A434FF6FF352B4066
:1020A0004FF2FF752B400D8A06EA85052B434D8ABA
:1020B00006EA85052B43838004838D68856302844B
:1020C00070BD000000000140000401400A460021EC
:1020D000018B4FF2FF7319404FF6FF7303EA02239F
:1020E000194301837047000070B5002400220023CB
:1020F000058C4FF6FF6635400584028C8388848BFF
:102100004FF68F752C404FF6FC752C400D882C43F4
:102110004FF6FF552A408D894FF6FF7606EA0525D2
:102120002A434D8806EA05252A43154DA84202D0C8
:10213000144DA8421DD14FF2FF752A40CD894FF6AC
:10214000FF7606EA05252A434FF6FF352A408D889B
:1021500006EA05252A434EF6FF752B404DF6FF751E
:102160002B400D8A06EA05152B434D8A06EA051514
:102170002B43838084838D68C563028470BD000017
:1021800000000140000401400A460021818B4FF607
:10219000F77319401143818370474163704781632E
:1021A0007047C1637047000000220288184B9842B4
:1021B0000ED0184B98420BD0B0F1804F08D0164B80
:1021C000984205D0154B984202D0154B984204D145
:1021D0004FF68F731A404B881A43124B984207D020
:1021E000114B984204D04FF6FF431A400B891A4313
:1021F00002804B68C3620B880385054B984202D06E
:10220000044B984201D18B7A038601238382704765
:1022100000000140000401400004004000080040AC
:10222000000C0040001000400014004010B540F2C7
:1022300025511D4800F039F910B31B4800F0EAF9A8
:10224000C4B21A48008800F40040C8B91748008892
:1022500000F4804060B10A2C03D0002013490880AC
:1022600020E01248008840F400401049088019E03E
:102270000D2C06D10D48008840F480400B490880A1
:1022800010E00A480088C0F30D0009490C540748C3
:102290000088401C0549088008460088C72801DDE1
:1022A0000020088010BD00000010014044080020FC
:1022B0006008002010B55B480078012864D140F226
:1022C0002551594800F0F1F800285DD040F2255121
:1022D000554800F0C2F8544800F09CF9C4B22146B9
:1022E000524800F09CF95248008800F40040002851
:1022F00009D14F48008800F48040E8B10A2C03D08F
:1023000000204B4908808BE04948008840F4004099
:102310004749088001204749087000204649087055
:10232000C8214648FDF753FF00204149088001219C
:102330004348FFF7FCFD73E00D2C06D13C480088B4
:1023400040F480403A4908806AE039480088C0F388
:102350000D003A490C5436480088401C3449088026
:1023600008460088C72801DD002008803048008822
:10237000072855DD33483049097844542E48007801
:10238000401C2D4908704BE040F22551264800F0D2
:102390008CF8002844D040F22551234800F05DF825
:1023A000214800F037F9C4B22146204800F037F93F
:1023B0001F48008800F4004000BB1D48008800F45E
:1023C000804098B10A2C03D000201949088027E0EA
:1023D0001748008840F4004015490880C821174874
:1023E000FDF7F5FE00201249088019E00D2C06D1FA
:1023F0000F48008840F480400D49088010E00C48E8
:102400000088C0F30D000D490C5409480088401C99
:102410000749088008460088C72801DD0020088099
:1024200010BD00004808002000440040001001409A
:1024300046080020490800204A080020380F0020E4
:10244000000C00400010002001F40072B2F5007F83
:1024500000D100BFCA430280704710B5002200239C
:1024600040F66A14A14200D100BF0A120124944030
:10247000A3B2DC43048010BD21B1828942F4005232
:10248000828104E082894DF6FF731A408281704791
:1024900002460020B1F5007F00D100BF13880B4039
:1024A0000BB1012000E00020704770B50246002407
:1024B00000230025002040F66A16B14200D100BF7B
:1024C000C1F3421501F01F03012606FA03F3012DA3
:1024D00002D19689334006E0022D02D1168A33409C
:1024E00001E0968A33400C12012606FA04F416889D
:1024F000344013B10CB1012000E0002070BDF0B5F4
:102500000346002400260025002040F66A17B94241
:1025100000D100BF1846C1F3421401F01F06012785
:1025200007FA06F5012C01D10C3004E0022C01D190
:10253000103000E014301AB107682F43076002E042
:102540000768AF430760F0BD2DE9FF4705460E461B
:102550000024A046A1460027B08900B100BF2C8A04
:1025600024F44054F08804432C82AC8941F20C607E
:102570008443B08831890843718908430443AC819E
:10258000AC8A24F44074B0890443AC826846FEF7F8
:1025900023FF1E48854202D01D48854202D1DDF846
:1025A0000C8001E0DDF80880A88900F4004030B11B
:1025B0004FEAC80031684900B0FBF1F905E04FEA85
:1025C000C80031688900B0FBF1F96420B9FBF0F074
:1025D00004012009642101FB1097A88900F4004040
:1025E00040B1322000EBC700B0FBF1F000F0070073
:1025F000044308E0322000EB07106421B0FBF1F047
:1026000000F00F0004432C81BDE8FF87001001405B
:102610000014014001468888C0F308007047C1F3E8
:1026200008028280704700BFFEE7000010B500245A
:102630000D2229A12C4800F047FD4FF4FA7000F05C
:10264000B7FA0D2229A1284800F03EFD4FF4FA7098
:1026500000F0AEFA0E2227A1234800F035FD00BF9E
:1026600004E0642000F0A4FA601CC4B20A2CF8DB79
:10267000312224A11C4800F027FD002405E04FF47E
:102680007A7000F095FA601CC4B2142CF7DB2B2290
:1026900029A1154800F018FD002405E04FF47A70D8
:1026A00000F086FA601CC4B2052CF7DB07222DA1CE
:1026B0000D4800F009FD4FF4FA7000F079FA10228D
:1026C0002AA1094800F000FD4FF4FA7000F070FAFA
:1026D00001202A49087010BD41542B524553544FD4
:1026E00052450D0A000000000044004041540D0A0C
:1026F0000000000041542B43574D4F44453D310DE0
:102700000A00000041542B43574A41505F43555241
:102710003D224445534B544F502D434A474D395663
:102720004C2036353038222C22313233343536378E
:1027300038220D0A0000000041542B4349505354E5
:102740004152543D22544350222C223139322E31F1
:1027500036382E3133372E3535222C383038300D7F
:102760000A000000415445310D0A000041542B433A
:10277000495053454E443D32340D0A00480800206C
:1027800000B587B001210820FEF7F6FD01214804BD
:10279000FEF702FE02208DF8180000208DF81A00C6
:1027A0006020059000208DF81B0002208DF8190094
:1027B00005A91F48FEF738F9072205211C48FEF736
:1027C0007BF9072206211A48FEF776F94FF4E1302B
:1027D00001900020ADF810000C20ADF80E00002094
:1027E000ADF80C00ADF80A00ADF8080001A91148D9
:1027F000FFF7AAFE40210F48FFF726FE01210D48F2
:10280000FFF73AFE012240F225510A48FFF777FE12
:1028100026208DF8000001208DF8030002208DF89D
:1028200001008DF802006846FEF738FA07B000BDD7
:10283000000C0240004400400FB4054B10B503A942
:10284000044A029800F018F810BC5DF814FB000070
:10285000C52C00085C08002002E008C8121F08C14F
:10286000002AFAD170477047002001E001C1121F11
:10287000002AFBD1704700002DE9FF4F8DB09B4629
:102880000F460446002606E025280BD05A460F992D
:102890009047641C761C20780028F5D111B0304692
:1028A000BDE8F08F0025A8460122984900E00543C5
:1028B00014F8013F203B02FA03F00842F7D12078D8
:1028C0002E2817D114F8010F45F004052A280ED040
:1028D0006FF02F022078A0F1300109290AD808EB07
:1028E000880102EB410100EB0108641CF2E757F894
:1028F000048B641C20786C280DD004DC4C2812D08A
:102900006A2811D104E074280DD07A280CD10AE08D
:1029100045F4001507E0617845F48015814202D145
:10292000641C05F58015641C2278692A45D008DCF2
:10293000002AB3D0582A69D0632A10D0642A08D15B
:102940003BE0702A67D0732A13D0752A5CD0782AAE
:102950005CD010465A460F999047761CD3E017F882
:10296000040B8DF8000000208DF80100E9460120DD
:1029700003E057F8049B4FF0FF3069074FF0000564
:1029800001D40AE06D1C45450DDA8542FADB19F8E1
:1029900005100029F6D106E06D1C8542FCDB19F814
:1029A00005100029F8D12E4404E019F8010B5A460D
:1029B0000F9990476D1EF8D2A5E00A200021CDE9BD
:1029C0000801C5F3025002280DD001CFC117031E24
:1029D00071F100030DDA4FF0000CD0EB0C006CEB42
:1029E00001012D2308E0FF1D27F00707F7E802018A
:1029F000EDE72B0504D52B238DF8283001233BE090
:102A0000EB0739D02023F7E70A2000E0102000214F
:102A1000CDE9080107E01020002145F00405CDE9CB
:102A200008014FF00808C5F3025002280FD001CF6B
:102A300000214FF0000A2B071FD5702A0DD0DDE9C9
:102A400008C38CF0100C5CEA030C0CD015E0FF1DE1
:102A500027F00707F7E80201EBE740228DF828206E
:102A60004FF0010A0BE050EA010306D030238DF845
:102A700028308DF8292002239A46582A04D024A20F
:102A80000DF120090B9209E026A2F9E7DDE9082300
:102A9000FDF7B6FB0B9B9B5C09F8013D50EA010278
:102AA000F4D1ADEB090020300890680701D44FF055
:102AB00001080899884502DDA8EB010000E000202C
:102AC0008046002506E00AA85A46405D0F999047C7
:102AD0006D1C761C5545F6DB04E030205A460F99F4
:102AE0009047761CB8F10001A8F10108F5DC05E07B
:102AF00019F8010B5A460F999047761C0899481E01
:102B000008900029F4DC641CC5E6000009280100D7
:102B10003031323334353637383961626364656653
:102B20000000000030313233343536373839414215
:102B300043444546000000001CB501210220FEF779
:102B40001BFC4FF48060009001208DF804000020F1
:102B50008DF8060002208DF8070000208DF8050092
:102B600069460248FDF760FF1CBD000000040240FA
:102B70001CB501211020FEF7FFFB4FF4E060009030
:102B800001208DF8040000208DF8060001208DF84A
:102B9000070000208DF8050069460448FDF744FF52
:102BA0004FF6FF710148FDF7B5FF1CBD0010024054
:102BB00070B50021214C248844436FF07F45B4FB5D
:102BC000F5F4E2B21D4C24884443B4FBF5F605FB52
:102BD00016434FF0E024246944F001044FF0E0254F
:102BE0002C6111E0154C248844434FF0E0256C61C2
:102BF0000024AC6100BF4FF0E024216901F480346F
:102C00002100F8D0541EE2B2002AEBD14FF0E024AC
:102C1000636100244FF0E025AC6100BF4FF0E02479
:102C2000216901F480342100F8D04FF0E0242469B8
:102C300024F001044FF0E0252C6170BD4008002015
:102C400000210F4A127842434FF0E0235A610022DC
:102C50009A611A46126942F001021A6100BF4FF0F0
:102C6000E022116901F480321100F8D04FF0E02227
:102C7000126922F001024FF0E0231A617047000050
:102C80003E0800204FF0E021096921F005014FF0D6
:102C9000E0221161C21700EB5272C2F3C702074B68
:102CA0001A701946097801EB4102C2EBC1114FF6C7
:102CB000FF7202EAC101024A118070473E080020FB
:102CC0004008002070B504460D46A1B20748FFF742
:102CD000A6FC00BF40210548FFF7DAFB0028F9D029
:102CE00040210248FFF7B0FB204670BD0044004081
:102CF0004FF4A060FEF70EF8FDF772FFFFF740FDFE
:102D0000A820FFF7BFFFFEF7B7F8FDF757FDFFF765
:102D10002FFFFFF711FFFDF7CBFBFDF743FCFEF79D
:102D20001BFDFEF77BFDFEF7BFFC42F2CF0140F634
:102D3000B730FFF7BFF842F2CF0140F22B10FFF798
:102D40008FF8FFF773FC00BFFEE7000008B5FDF742
:102D5000EBFF01201949087010230022194600904A
:102D60001046FEF7FFF90120102302461946009095
:102D70001420FEF7F7F901201023022219460090D3
:102D80002820FEF7EFF901201023032219460090B6
:102D90003C20FEF7E7F90120102304221946009099
:102DA0005020FEF7DFF9012010230522194600907C
:102DB0006420FEF7D7F9FEF703F908BD31080020BB
:102DC0001CB5022076490870FDF7AEFF01201023E4
:102DD0000022114600901046FEF7C4F9012010238E
:102DE0000246002100901420FEF7BCF901201023B8
:102DF0000222002100902820FEF7B4F901201023C0
:102E00000322002100903C20FEF7ACF901201023A2
:102E10000422002100905020FEF7A4F90120102385
:102E20000522002100906420FEF79CF90120102368
:102E30000D22194600904820FEF794F90120102336
:102E40000E22194600905820FEF78CF9012010231D
:102E500054A2194600906820FEF74CFAFDF760FE78
:102E600004460120102104232246CDE90010202130
:102E70004820FEF7F9F9FDF753FEB0F57A7F08DC3C
:102E8000012010230B22302100905F20FEF76AF909
:102E900007E0012010230C22302100905F20FEF774
:102EA00061F90120102340A2194600900020FEF78E
:102EB00021FA012010233EA2202100900020FEF7DD
:102EC00019FA012010233CA2302100900020FEF7C7
:102ED00011FA3B480078012807D110230B2219462C
:102EE00000902820FEF73EF914E0354800780228CB
:102EF00008D1012010230C22194600902820FEF74B
:102F000031F907E0012010230A22194600902820F9
:102F1000FEF728F92B480078012807D110230B224F
:102F2000202100902820FEF71DF914E025480078A4
:102F3000022808D1012010230C22202100902820F3
:102F4000FEF710F907E0012010230A22202100904B
:102F50002820FEF707F91C480078012807D1102324
:102F60000B22302100902820FEF7FCF814E01648D0
:102F70000078022808D1012010230C223021009073
:102F80002820FEF7EFF807E0012010230A22302165
:102F900000902820FEF7E6F8FEF712F81CBD0000AE
:102FA000310800203A0000004C4544313A0000004E
:102FB0004C4544323A000000424545503A0000007A
:102FC0003608002037080020390800201FB503A963
:102FD00002A8FDF745FB032039490870FDF7A4FE60
:102FE000012010231A46002100900846FEF7BAF887
:102FF000012010231122002100901920FEF7B2F8C1
:10300000012010231222002100903220FEF7AAF89E
:10301000012010231322002100904B20FEF7A2F87C
:10302000012010231422002100906420FEF79AF85A
:10303000012010231222194600900020FEF792F87A
:10304000012010231422194600901920FEF78AF857
:10305000012010231BA2194600902920FEF74AF9EF
:10306000012010210223CDE900109DF80C20322010
:10307000FEF7FAF8012010231322202100900020EF
:10308000FEF770F80120102314222021009019204F
:10309000FEF768F8012010230AA2202100902920C1
:1030A000FEF728F9012010210223CDE900109DF838
:1030B000082020213220FEF7D7F8FDF781FF1FBD41
:1030C000310800203A0000002DE9F04107460C4687
:1030D0001546002640213846FFF7B6F900BF11E03B
:1030E00021783846FFF79BFA00BF40213846FFF7AA
:1030F000CFF90028F9D040213846FFF7A5F9641C24
:10310000701CC6B2AE42EBDBBDE8F08100000000EF
:1031100000000000002F000000000700070000145E
:103120007F147F1400242A7F2A120062640813236C
:1031300000364955225000000503000000001C2203
:103140004100000041221C000014083E0814000841
:10315000083E0808000000A06000000808080808F1
:10316000000060600000002010080402003E514989
:10317000453E0000427F4000004261514946002127
:1031800041454B31001814127F1000274545453941
:10319000003C4A494930000171090503003649499C
:1031A000493600064949291E000036360000000055
:1031B00056360000000814224100001414141414A0
:1031C0000000412214080002015109060032495949
:1031D000513E007C1211127C007F49494936003E65
:1031E00041414122007F4141221C007F4949494120
:1031F000007F09090901003E4149497A007F08081A
:10320000087F0000417F4100002040413F01007FD6
:1032100008142241007F40404040007F020C027FA2
:10322000007F0408107F003E4141413E007F0909B4
:103230000906003E4151215E007F091929460046DA
:10324000494949310001017F0101003F4040403FB1
:10325000001F2040201F003F4038403F00631408FB
:1032600014630007087008070061514945430000D6
:103270007F41410000552A552A55000041417F00F9
:1032800000040201020400404040404000000102EE
:103290000400002054545478007F484444380038D7
:1032A0004444442000384444487F0038545454185F
:1032B00000087E0901020018A4A4A47C007F080471
:1032C00004780000447D4000004080847D00007F41
:1032D000102844000000417F4000007C041804785E
:1032E000007C0804047800384444443800FC24245A
:1032F00024180018242418FC007C08040408004842
:103300005454542000043F444020003C4040207C62
:10331000001C2040201C003C4030403C0044281051
:103320002844001CA0A0A07C004464544C44141405
:10333000141414140000000000000000000000003D
:103340000000FC000000000002000000000C020C65
:10335000020000000000000090D0BCD0BC90000330
:10336000000300001824FE448C0003020702010041
:103370001824D8B04C80000300010201C038E438A2
:10338000E000010202010202080600000000000045
:1033900000000000000000F8040200000001020428
:1033A000000204F800000004020100009060F860D0
:1033B00090000000010000002020FC202000000000
:1033C00001000000000000000000080600000000EE
:1033D000202020202000000000000000000000004D
:1033E00000000002000000000080601C02000403D6
:1033F00000000000F8040404F800010202020100C9
:103400000008FC00000000020302000018844424AD
:10341000180003020202020008042424D80001025A
:103420000202010040B088FC80000000000302009E
:103430003C242424C400010202020100F824242CAC
:10344000C0000102020201000C04E41C04000000A0
:1034500003000000D8242424D80001020202010045
:1034600038444444F8000003020201000000100048
:10347000000000000200000000002000000000002A
:103480000600000000205088040200000000010235
:1034900090909090900000000000000000020488CE
:1034A00050200002010000001804C424180000008D
:1034B00002000000F804E494F80001020202020095
:1034C00000E09CF0800002030000030204FC2424BE
:1034D000D800020302020100F80404040C000102F7
:1034E0000202010004FC0404F800020302020100CD
:1034F00004FC24740C0002030202030004FC247484
:103500000C00020302000000F0080444CC4000015B
:103510000202010004FC2020FC040203000003025C
:103520000404FC040400020203020200000404FC80
:10353000040406040403000004FC24D00C04020369
:103540000200030204FC0400000002030202020362
:10355000FC3CC03CFC0003000300030004FC30C43E
:10356000FC04020302000300F8040404F800010252
:103570000202010004FC24241800020302000000DF
:10358000F8848404F80001020207050004FC2464A6
:103590009800020302000302182424448C00030252
:1035A000020201000C04FC040C00000203020000F3
:1035B00004FC0000FC04000102020100047C80E025
:1035C0001C040000030000001CE03CE01C000003A1
:1035D00000030000049C609C04000203000302003E
:1035E000041CE01C04000002030200000C84641CA4
:1035F00004000203020203000000FE0202000000B9
:1036000007040400000E30C00000000000010200AA
:10361000000202FE0000000404070000000402048F
:10362000000000000000000000000000000008088A
:103630000808080800000200000000000000000068
:103640000040A0A0C00000010202030204FC2020F0
:10365000C00000030202010000C020206000000141
:103660000202020000C02024FC000001020203024A
:1036700000C0A0A0C0000001020202000020F82447
:1036800024040002030202000040A0A06020000702
:103690000A0A0A0404FC2020C000020302000302FC
:1036A0000020E4000000000203020000000020E40B
:1036B000000008080807000004FC80E02020020346
:1036C000020003020404FC000000020203020200E4
:1036D000E020E020C00003000300030020E02020E1
:1036E000C00002030200030200C02020C00000014D
:1036F0000202010020E02020C000080F0A020100A1
:1037000000C02020E0000001020A0F0820E0402055
:1037100020000203020000000060A0A020000002C0
:10372000020203000020F820000000000102020055
:1037300020E00020E00000010202030220E02080DF
:1037400060200000030100006080E0806000000352
:1037500000030000206080602000020300030200DC
:1037600020E0208060200808070100000020A06001
:103770002000000203020200000020DE0200000020
:1037800000070400000000FF00000000000F000020
:103790000002DE2000000004070000000201020415
:1037A0000402000000000000000000000000000013
:1037B0000000000000000000000000F80000000011
:1037C000000000333000000000100C06100C060052
:1037D000000000000000000040C07840C0784000B9
:1037E000043F04043F040400007088FC083000001B
:1037F000001820FF211E0000F008F000E018000073
:1038000000211C031E211E0000F00888700000002B
:103810001E2123241927211010160E00000000007D
:103820000000000000000000000000E0180402009A
:10383000000000071820400000020418E00000000B
:103840000040201807000000404080F08040400009
:103850000202010F01020200000000F0000000005F
:103860000101011F01010100000000000000000033
:1038700080B07000000000000000000000000000A8
:103880000001010101010101000000000000000031
:1038900000303000000000000000000080601804CC
:1038A000006018060100000000E010080810E000A9
:1038B000000F102020100F00001010F80000000072
:1038C0000020203F202000000070080808887000B9
:1038D0000030282422213000003008888848300039
:1038E0000018202020110E000000C02010F8000059
:1038F00000070424243F240000F8088888080800F2
:103900000019212020110E0000E010888818000006
:10391000000F112020110E0000380808C8380800D8
:103920000000003F00000000007088080888700058
:10393000001C222121221C0000E010080810E000D9
:103940000000312222110F00000000C0C000000062
:103950000000003030000000000000800000000087
:10396000000080600000000000008040201008007F
:103970000001020408102000404040404040400048
:103980000404040404040400000810204080000023
:103990000020100804020100007048080808F00028
:1039A0000000003036010000C030C828E810E000F8
:1039B0000718272423140B000000C038E000000083
:1039C000203C23020227382008F8888888700000ED
:1039D000203F202020110E00C030080808083800C1
:1039E000071820202010080008F808080810E00038
:1039F000203F202020100F0008F88888E8081000D9
:103A0000203F20202320180008F88888E8081000AC
:103A1000203F200003000000C030080808380000E4
:103A200007182020221E020008F808000008F808E5
:103A3000203F210101213F20000808F8080800006C
:103A40000020203F2020000000000808F80808009F
:103A5000C08080807F00000008F888C02818080017
:103A6000203F20012638200008F808000000000050
:103A7000203F20202020300008F8F800F8F8080047
:103A8000203F003F003F200008F830C00008F80841
:103A9000203F200007183F00E01008080810E00051
:103AA0000F10202020100F0008F808080808F00068
:103AB000203F210101010000E01008080810E0008B
:103AC0000F18242438504F0008F888888888700020
:103AD000203F2000030C30200070880808083800C0
:103AE0000038202121221C00180808F808081800B6
:103AF0000000203F2000000008F808000008F80837
:103B0000001F202020201F000878880000C83808E7
:103B1000000007380E010000F80800F80008F8005F
:103B2000033C0700073C03000818688080681808F9
:103B300020302C03032C30200838C800C838080077
:103B40000000203F2000000010080808C8380800C6
:103B50002038262120201800000000FE020202006A
:103B60000000007F40404000000C30C0000000001A
:103B7000000000010638C00000020202FE00000042
:103B8000004040407F0000000000040202020400E8
:103B90000000000000000000000000000000000025
:103BA000808080808080808000020204000000000D
:103BB0000000000000000000000080808080000005
:103BC0000019242222223F2008F8008080000000F3
:103BD000003F112020110E000000008080800000B6
:103BE000000E112020201100000000808088F800C5
:103BF000000E112020103F200000808080800000F7
:103C0000001F222222221300008080F0888888185A
:103C10000020203F20200000000080808080800065
:103C2000006B94949493600008F8008080800000FA
:103C3000203F210000203F200080989800000000D5
:103C40000020203F20200000000000809898000005
:103C500000C08080807F000008F800008080800025
:103C6000203F24022D302000000808F8000000004A
:103C70000020203F20200000808080808080800005
:103C8000203F20003F20003F808000808080000097
:103C9000203F210000203F20000080808080000025
:103CA000001F202020201F00808000808000000056
:103CB00080FFA12020110E00000000808080800085
:103CC000000E112020A0FF80808080008080800076
:103CD00020203F21200001000000808080808000A3
:103CE0000033242424241900008080E08080000018
:103CF0000000001F20200000808000000080800065
:103D0000001F202020103F208080800000808080C5
:103D100000010E3008060100808000800080808055
:103D20000F300C030C300F0000808000808080007A
:103D30000020312E0E3120008080800000808080A5
:103D400080818E7018060100008080808080800055
:103D50000021302C2221300000000000807C020273
:103D600000000000003F404000000000FF00000095
:103D700000000000FF0000000002027C8000000044
:103D80000040403F00000000000601010202040460
:103D90000000000000000000000000000000000023
:103DA0000000000000000000000000000000000013
:103DB0000000000000000000000000000000000003
:103DC00000F0F0F0000000000000000000017F01A2
:103DD0000000000000000000001C1C1C000000008F
:103DE00000008060301C8C60301C0C000000000063
:103DF00000000000000000000000000000000000C3
:103E000000000000000000E00000000000E00000F2
:103E10000086E69F86868686E69F860000011F0153
:103E2000010101011F010100000080C06020F82095
:103E3000E0C00000000003070C18FF70E1810000E3
:103E40000000070F10107F100F0700008060206037
:103E500080000000E02000000F3020309F70DC3731
:103E60001030C0000000100E0300071810180700E3
:103E70000000C02020E0C0000000000080E01F38EB
:103E8000E88703C43C040000070F1810100B070D4F
:103E90001010080000808C4C38000000000000006A
:103EA0000000000000000000000000000000000012
:103EB000000000000000000000000000000080E0A2
:103EC000300804000000000000FEFF0100000000B8
:103ED000000000000000030F18204000000408301C
:103EE000E0800000000000000000000001FFFE0074
:103EF00000000000004020180F0300000000000038
:103F0000000000000000C0000000000000426666E3
:103F10003C18FF183C6666420000000000000300E9
:103F20000000000000000000000080000000000011
:103F3000001010101010FF101010101000000000E2
:103F4000000003000000000000000000000000006E
:103F50000000000000000000000000000000000061
:103F600000808C4C380000000000000000000000C1
:103F700000000000000000000010101010101010D1
:103F80001010100000000000000000000000000001
:103F90000000000000000000000000000000000021
:103FA000000000000000000000001C1C1C000000BD
:103FB000000000000000000000000000E0380C00DD
:103FC0000000000080701C03000000000060380E3C
:103FD0000100000000000000000080C060202060A0
:103FE000C080000000FEFF010000000001FFFE0095
:103FF0000001070E181010180E0701000000808045
:1040000080C0E000000000000000000000FFFF0092
:104010000000000000001010101F1F101010000002
:104020000080402020202060C080000000030300AA
:10403000804020381F070000001C1A191818181893
:10404000181F00000080C020202060C080000000F9
:10405000000303001010182FE780000000070F1066
:10406000101010180F070000000000000000C0E052
:10407000F000000000C0B088868180FFFF808000D3
:10408000000000000010101F1F1010000000E06072
:10409000606060606060000000003F100808081861
:1040A000F0E0000000070B101010101C0F030000C0
:1040B000000080C040202020E0C0000000FCFF2164
:1040C0001008080818F0E0000001070C1810101084
:1040D000080F03000000C0E06060606060E0600006
:1040E000000003000000E0180700000000000000CE
:1040F000001F1F00000000000080C0602020202062
:1041000060C080000087EF2C1818303068CF830023
:1041100000070F0810101010180F07000000C0C093
:1041200020202020C0800000001F3F604040402031
:1041300010FFFE0000000C1C101010080F03000000
:10414000000000000000000000000000000000006F
:10415000000E0E0E0000000000000000001C1C1CE1
:10416000000000000000000000000000000000004F
:1041700000000000000C0C00000000000000000027
:10418000005838000000000000000000000000801F
:1041900040201000000010284482010000000000B0
:1041A00000000000000001020408100000000000F0
:1041B0000000000000000000008484848484848463
:1041C0008484840000000000000000000000000063
:1041D00000001020408000000000000000000000EF
:1041E00000000182442810000000100804020100B1
:1041F0000000000000C020201010101030E0C000AF
:104200000003030000F010080C070300000000008A
:104210001C1C1C0000000000000000C040602020AA
:104220002040C00000FCFF01F00E03C1FE03807FB0
:104230000001070E0811111011090402000000000E
:1042400080E0E000000000000000807C4340477FE9
:10425000F880000010181F1000000000131F1C1031
:1042600020E0E02020202060C080000000FFFF1040
:10427000101010182FE78000101F1F1010101010C2
:10428000180F0700000080C0402020202060E000C0
:1042900000FCFF0100000000000001000001070E0B
:1042A000181010100804030020E0E0202020204017
:1042B000C080000000FFFF000000000001FFFE00C2
:1042C000101F1F10101018080E07010020E0E0203A
:1042D000202020202060800000FFFF101010107CA4
:1042E00000000000101F1F10101010101018060002
:1042F00020E0E020202020206060800000FFFF10F0
:104300001010107C00000100101F1F1000000000A2
:1043100000000000000080C06020202040E000007D
:1043200000FCFF0100004040C0C140400001070EFA
:10433000181010100F0F000020E0E0200000000017
:1043400020E0E02000FFFF101010101010FFFF0011
:10435000101F1F1000000000101F1F100000202061
:1043600020E0E020202000000000000000FFFF000F
:104370000000000000001010101F1F10101000009F
:1043800000000000202020E0E020202000000000AD
:10439000000000FFFF0000000060E0808080C07F20
:1043A0003F00000020E0E020000020A0602020006E
:1043B00000FFFF30187CE3C000000000101F1F103A
:1043C000000001131F1C181020E0E0200000000076
:1043D0000000000000FFFF000000000000000000DF
:1043E000101F1F10101010101018060020E0E0E041
:1043F00000000000E0E0E02000FF013FFEC0E01E02
:1044000001FFFF00101F1000031F0300101F1F10EB
:1044100020E0E0C0000000000020E02000FF0003DA
:10442000071C78E08000FF00101F10000000000053
:10443000030F1F00000080C060202060C0800000CB
:1044400000FEFF010000000000FFFE000001070E5B
:10445000181010180C07010020E0E0202020202078
:1044600060C0800000FFFF2020202020301F0F00B0
:10447000101F1F100000000000000000000080C09E
:1044800060202060C080000000FEFF0100000000EE
:1044900000FFFE000001070E1111133C7C67210094
:1044A00020E0E0202020202060C0800000FFFF10DE
:1044B0001030F0D0080F0700101F1F10000000037D
:1044C0000F1C10100080C060202020204040E00021
:1044D00000070F0C1818303060E08100001F0C0836
:1044E00010101010180F07008060202020E0E0203E
:1044F000202060800100000000FFFF00000000019C
:1045000000000000101F1F100000000020E0E0204D
:10451000000000000020E02000FFFF00000000007D
:104520000000FF0000070F181010101010080700FF
:104530002060E0E02000000020E060200000077F15
:10454000F88000807C03000000000000071F1C07AB
:104550000000000020E0E02000E0E0200020E0205B
:104560000007FFF8E01FFFFCE01F00000000031F32
:104570000300011F03000000002060E0A0000020F5
:10458000E0602000000000038F7CF8C601000000FE
:104590000010181E130001171F1810002060E0E023
:1045A0002000000020E06020000001073EF8E01835
:1045B0000700000000000010101F1F101000000076
:1045C00000806020202020A0E0E02000000000000B
:1045D000C0F03E0F0300000000101C1F1710101049
:1045E000101806000000000000FC0404040404008D
:1045F0000000000000FF00000000000000000000BC
:10460000007F404040404000000010E000000000FB
:104610000000000000000000031C6080000000009B
:1046200000000000000000030C7080000000040483
:10463000040404FC0000000000000000000000FF73
:1046400000000000000040404040407F00000000AB
:1046500000000010080C040C08100000000000000E
:10466000000000000000000000000000000000004A
:10467000000000000000000000000000000000003A
:10468000000000000000000000000000808080802A
:104690008080808080808080000000040408080002
:1046A000000000000000000000000000000000000A
:1046B00000000000000000000000000000000000FA
:1046C0000000000000000000000098D8446424248A
:1046D000FCF80000000F1F18101010081F1F101802
:1046E0000020E0F000000000000000000000FFFFDC
:1046F000180804040CF8F00000001F0F1810101028
:10470000180F03000000000000000000000000007F
:1047100000E0F8180404043C3800000000030F0C0B
:10472000101010100806000000000000000000201B
:10473000E0F0000000E0F81C04040408FFFF0000A3
:1047400000030F18101010081F0F080000000000D1
:1047500000000000000000000000E0F8484444446D
:104760004C7870000000030F0C18101010080400A3
:104770000000000080C0602020E0C00000040404AD
:10478000FFFF040404040000000010101F1F10109D
:104790001000000000000000000000000000000009
:1047A000000070F88C04048CF874040C007076CF50
:1047B0008D8D8D89C87870000020E0F00000000029
:1047C000000000000000FFFF08040404FCF80000E3
:1047D00000101F1F100000101F1F1000000000001D
:1047E00000606000000000000000040404FCFC0005
:1047F0000000000000001010101F1F10101000001B
:1048000000000000000000606000000000000000E8
:10481000040404FCFC0000000000C0C08080C07FD5
:104820003F0000000020E0F0000000000000000059
:104830000000FFFF80C0F41C0404000000101F1FD4
:104840001100031F1C1010000000202020E0F000C9
:10485000000000000000000000FFFF00000000005A
:1048600000001010101F1F101010000000000000AA
:10487000000000000000000004FCFC0804FCFC0830
:1048800004FCFC00101F1F10001F1F10001F1F1032
:104890000000000000000000000000000004FCFC1C
:1048A00008080404FCF8000000101F1F100000108E
:1048B0001F1F1000000000000000000000000000AA
:1048C00000E0F0180C04040C18F0E00000030F0CDA
:1048D000101010100C0F030000000000000000007A
:1048E000000000000004FCFC080404040CF8F000C4
:1048F0000080FFFF889010101C0F030000000000D4
:10490000000000000000000000E0F81C040404089F
:10491000F8FC000000030F1810109088FFFF8000C3
:10492000000000000000000000000000040404FC7F
:10493000FC100804040C0C001010101F1F101010A5
:104940000000000000000000000000000000000067
:1049500000003078CCC48484840C1C0000001E1835
:1049600010101011190F06000000000000C0000018
:104970000000000000040404FFFF04040400000021
:10498000000000000F1F1010100C000000000000BD
:1049900000000000000000000004FCFE0000000415
:1049A000FCFE000000000F1F181010081F0F080069
:1049B00000000000000000000000000000040C3CAB
:1049C000FCC40000C43C0C0400000000010F1E0EDB
:1049D00001000000000000000000000000000000D6
:1049E000043CFCC400E47CFC84807C040000071FC1
:1049F000070000071F070000000000000000000083
:104A0000000000000004041C7CE4C0341C0404000A
:104A10000010101C1601131F1C18100000000000CD
:104A2000000000000000000000040C3CFCC400C4B6
:104A30003C0404000000C080C1370E0100000000EB
:104A400000000000000000000000000000001C0446
:104A500004C4F47C1C0400000000101C1F1711107B
:104A600010180E0000000000000000F80C04000008
:104A700000000000001028EF00000000000000000F
:104A80000000003F60400000000000000000FF0048
:104A900000000000000000000000FF000000000017
:104AA000000000000000FF00000000000000040CF7
:104AB000F80000000000000000000000EF281000D7
:104AC00000000000000040603F0000000000000007
:104AD0000018060202040810202030080000000020
:104AE00000000000000000000000000000000000C6
:104AF00000000000201008FC032020107F8888841C
:104B000082E0000004040405040404FF0404040417
:104B1000040404001060028C00445454547F545424
:104B20005444400004047E010000FF1515155595FE
:104B30007F000000404042CC002022E22222E222FC
:104B4000222000000080403F40A0988780809FA0E6
:104B5000A0BC8000000000FE020202F2020202FE7F
:104B60000000000080804047201806017E8080877A
:104B70008080E00020A4A4A4FFA4B42884708F083F
:104B800008F80800040A49887E0504844020130CB4
:104B900033408000040424B4ACA4A5A6A4A4A4B407
:104BA00064040400000000FF0A0A0A0A0A4A8A7F15
:104BB0000000000004244484649C40300FC80808AE
:104BC0002818000010080601824C2018060106185B
:104BD00020408000404042CC0000FC040200FC0465
:104BE00004FC00000040201F20404F4442407F4210
:104BF00044434000201008FC2310886704F4042478
:104C0000548C000040300077808188B2848380E03B
:104C100000116000000404745454555654545474E4
:104C200004040000848341211D05050505057D81DF
:104C30008185E30002028272020202FE02028242C7
:104C40003202020080814020100C0300030C10206F
:104C50004080800002E222223E00809E9292F292E8
:104C6000929E8000004382423E40474444447F4439
:104C70004454E70000F2929292929E00F292929235
:104C8000929E00000010114A88443F0010114A888B
:104C9000443F00004040424458C0407F40C050481C
:104CA000464040008080402018070000003F404000
:104CB0004040780000FE424242FE0042A29E82A294
:104CC000C2BE0000806F080828CF00002FC8080867
:104CD00028CF00000000FC242424FC252624FC24EA
:104CE0002424040040308F80844C55252525554CC4
:104CF00080808000100C2424A46425262424A4246D
:104D000024140C00404048494949497F4949494BCE
:104D10004840400000F808080808887F880808080C
:104D200008F8000000FF0008040201000001024C26
:104D3000807F00001060028C0000FE92929292929E
:104D4000FE00000004047E01407E42427E427E421C
:104D5000427E40001060028C00FE929292929292EB
:104D6000FE00000004047E014448507F40407F5014
:104D7000484440000000FC242424FC252624FC2474
:104D80002424040040308F80844C55252525554C23
:104D900080808000000000C080808080808080FC57
:104DA00084808080808080C0C0000000000000FF00
:104DB0007F404040404040FF40404040404040FF36
:104DC0007F00000000000000000000000000007FE5
:104DD0007000000000000000000000000000000063
:104DE0000000000000000000000000FCF8000000CF
:104DF00000000000000000000000000000000000B3
:104E0000FFFE020202020202020202FFFF0202028F
:104E1000020202020202FF03000000000000000084
:104E20001F1F040404040404040404FFFF04040416
:104E30000404040404041F0000000000000000003B
:104E400000000000000000000000007F3F000000A4
:104E50000000000000000000000000000000000052
:104E60000000000000000000000000000000000042
:104E7000000000000000000000F8F8F0F0702000D2
:104E80000000000000000000000000000000000022
:104E90000000000000000000000000000000000012
:104EA0000000000080000000000000000000000082
:104EB000000000000000000000FFFFFFFF000000F6
:104EC00000000000000000000000000000000000E2
:104ED00080800000000000000000000000000000D2
:104EE0000000000000FFFFFE060606060606060696
:104EF000060606060606060606FFFFFFFF0606066E
:104F0000060606060606060606060606060606FF48
:104F1000FFFFFF070200000000000000000000008B
:104F20000000000000FFFFFF000000000000000084
:104F3000000000000000000000FFFFFFFF00000075
:104F4000000000000000000000000000000000FF62
:104F5000FFFFFF0000000000000000000000000054
:104F60000000000000FFFFFF181818181818181884
:104F7000181818181818181818FFFFFFFF18181815
:104F8000181818181818181818181818181818FFBA
:104F9000FFFFFF0000000000000000000000000014
:104FA00000000000020101000000000000000000FD
:104FB000000000000000000000FFFFFFFF000000F5
:104FC00000000000000000000000000000000001E0
:104FD00001000000000000000000000000000000D0
:104FE00000000000000000000000000000000000C1
:104FF000000000000000000000FFFFFFFF000000B5
:1050000000000000000000000000000000000000A0
:105010000000000000000000000000000000000090
:105020000000000000000000000000000000000080
:105030000000000000000000001F1F0F0F00000014
:105040000000000000000000000000000000000060
:10505000000000000000000000000000444854313F
:10506000315F726561645F64617461008C50000837
:105070000000002060080000C602000894520008EA
:1050800060080020680C0000682800084012000337
:10509000050911FF118905C300E000F000F80001C7
:1050A00000083A4428FF11AA440001500B8301383C
:1050B000448292927401831120087C44FF017D7D1B
:1050C0007D04410540047D01FF6E920102613F03B2
:1050D0003B01017E81419149F20101011BC230086F
:1050E0003F3F0303F3131101100601F111618140E9
:1050F0002005816111F14733414107200401C1219D
:1051000020A321C11431193137040736D3330303E7
:105110003F3F426006E0E000007FA8127FBF4004EE
:105120000618060A1008000040407F4040A4100402
:105130001F204001A3201F143300600E6004300CB8
:1051400003460534C210040707060170090404046D
:1051500084444444840780050484C4041501120A6D
:1051600071112140073D0707C9200F0000101814D6
:10517000121100000F1010100F0F131F1015600DEB
:10518000081012120D00001800000D120A512951CA
:1051900030015E01528001013B4514047F030CA9DC
:1051A00015DE1C05385454582503080A20040478D9
:1051B00000003C40407C2000092CFFAAAAAA280835
:1051C00000FF6810062649494932101005020408FC
:1051D000100F0D6F00049D01040D9D000415634325
:1051E000F80801240500F81860E8240480601823FA
:1051F0005720202923E01021A310E01449B43139AD
:1052000008043C886818630D15FF037DEA039DFFC1
:105210000371144DFF031D06043D2E040942E91CD1
:105220000640202020C04A04110721EA3E405204D3
:1052300052600E8118712951070D4769031C060C35
:105240000A0A090C0004156B2D00042004080F083D
:105250001510050809090E071D180430050909096C
:105260000F0A512951070DFF00040D2100042DA63E
:10527000061222011233011DD10522440C01121421
:105280000D267507200402030404340506070809E7
:045290008100000099
:040000050800018965
:00000001FF
